{
  "contractName": "Token",
  "abi": [
    {
      "constant": true,
      "inputs": [],
      "name": "name",
      "outputs": [
        {
          "name": "",
          "type": "string"
        }
      ],
      "payable": false,
      "stateMutability": "view",
      "type": "function"
    },
    {
      "constant": false,
      "inputs": [
        {
          "name": "spender",
          "type": "address"
        },
        {
          "name": "value",
          "type": "uint256"
        }
      ],
      "name": "approve",
      "outputs": [
        {
          "name": "",
          "type": "bool"
        }
      ],
      "payable": false,
      "stateMutability": "nonpayable",
      "type": "function"
    },
    {
      "constant": true,
      "inputs": [],
      "name": "totalSupply",
      "outputs": [
        {
          "name": "",
          "type": "uint256"
        }
      ],
      "payable": false,
      "stateMutability": "view",
      "type": "function"
    },
    {
      "constant": false,
      "inputs": [
        {
          "name": "from",
          "type": "address"
        },
        {
          "name": "to",
          "type": "address"
        },
        {
          "name": "value",
          "type": "uint256"
        }
      ],
      "name": "transferFrom",
      "outputs": [
        {
          "name": "",
          "type": "bool"
        }
      ],
      "payable": false,
      "stateMutability": "nonpayable",
      "type": "function"
    },
    {
      "constant": true,
      "inputs": [],
      "name": "decimals",
      "outputs": [
        {
          "name": "",
          "type": "uint8"
        }
      ],
      "payable": false,
      "stateMutability": "view",
      "type": "function"
    },
    {
      "constant": false,
      "inputs": [
        {
          "name": "spender",
          "type": "address"
        },
        {
          "name": "addedValue",
          "type": "uint256"
        }
      ],
      "name": "increaseAllowance",
      "outputs": [
        {
          "name": "",
          "type": "bool"
        }
      ],
      "payable": false,
      "stateMutability": "nonpayable",
      "type": "function"
    },
    {
      "constant": false,
      "inputs": [
        {
          "name": "to",
          "type": "address"
        },
        {
          "name": "value",
          "type": "uint256"
        }
      ],
      "name": "mint",
      "outputs": [
        {
          "name": "",
          "type": "bool"
        }
      ],
      "payable": false,
      "stateMutability": "nonpayable",
      "type": "function"
    },
    {
      "constant": false,
      "inputs": [
        {
          "name": "value",
          "type": "uint256"
        }
      ],
      "name": "burn",
      "outputs": [],
      "payable": false,
      "stateMutability": "nonpayable",
      "type": "function"
    },
    {
      "constant": true,
      "inputs": [],
      "name": "_reserveBalance",
      "outputs": [
        {
          "name": "",
          "type": "uint256"
        }
      ],
      "payable": false,
      "stateMutability": "view",
      "type": "function"
    },
    {
      "constant": true,
      "inputs": [
        {
          "name": "owner",
          "type": "address"
        }
      ],
      "name": "balanceOf",
      "outputs": [
        {
          "name": "",
          "type": "uint256"
        }
      ],
      "payable": false,
      "stateMutability": "view",
      "type": "function"
    },
    {
      "constant": false,
      "inputs": [],
      "name": "renounceOwnership",
      "outputs": [],
      "payable": false,
      "stateMutability": "nonpayable",
      "type": "function"
    },
    {
      "constant": false,
      "inputs": [
        {
          "name": "from",
          "type": "address"
        },
        {
          "name": "value",
          "type": "uint256"
        }
      ],
      "name": "burnFrom",
      "outputs": [],
      "payable": false,
      "stateMutability": "nonpayable",
      "type": "function"
    },
    {
      "constant": true,
      "inputs": [],
      "name": "owner",
      "outputs": [
        {
          "name": "",
          "type": "address"
        }
      ],
      "payable": false,
      "stateMutability": "view",
      "type": "function"
    },
    {
      "constant": true,
      "inputs": [],
      "name": "isOwner",
      "outputs": [
        {
          "name": "",
          "type": "bool"
        }
      ],
      "payable": false,
      "stateMutability": "view",
      "type": "function"
    },
    {
      "constant": true,
      "inputs": [],
      "name": "symbol",
      "outputs": [
        {
          "name": "",
          "type": "string"
        }
      ],
      "payable": false,
      "stateMutability": "view",
      "type": "function"
    },
    {
      "constant": false,
      "inputs": [
        {
          "name": "account",
          "type": "address"
        }
      ],
      "name": "addMinter",
      "outputs": [],
      "payable": false,
      "stateMutability": "nonpayable",
      "type": "function"
    },
    {
      "constant": false,
      "inputs": [],
      "name": "renounceMinter",
      "outputs": [],
      "payable": false,
      "stateMutability": "nonpayable",
      "type": "function"
    },
    {
      "constant": false,
      "inputs": [
        {
          "name": "spender",
          "type": "address"
        },
        {
          "name": "subtractedValue",
          "type": "uint256"
        }
      ],
      "name": "decreaseAllowance",
      "outputs": [
        {
          "name": "",
          "type": "bool"
        }
      ],
      "payable": false,
      "stateMutability": "nonpayable",
      "type": "function"
    },
    {
      "constant": true,
      "inputs": [],
      "name": "_gasPrice",
      "outputs": [
        {
          "name": "",
          "type": "uint256"
        }
      ],
      "payable": false,
      "stateMutability": "view",
      "type": "function"
    },
    {
      "constant": false,
      "inputs": [
        {
          "name": "to",
          "type": "address"
        },
        {
          "name": "value",
          "type": "uint256"
        }
      ],
      "name": "transfer",
      "outputs": [
        {
          "name": "",
          "type": "bool"
        }
      ],
      "payable": false,
      "stateMutability": "nonpayable",
      "type": "function"
    },
    {
      "constant": true,
      "inputs": [
        {
          "name": "account",
          "type": "address"
        }
      ],
      "name": "isMinter",
      "outputs": [
        {
          "name": "",
          "type": "bool"
        }
      ],
      "payable": false,
      "stateMutability": "view",
      "type": "function"
    },
    {
      "constant": true,
      "inputs": [
        {
          "name": "owner",
          "type": "address"
        },
        {
          "name": "spender",
          "type": "address"
        }
      ],
      "name": "allowance",
      "outputs": [
        {
          "name": "",
          "type": "uint256"
        }
      ],
      "payable": false,
      "stateMutability": "view",
      "type": "function"
    },
    {
      "constant": false,
      "inputs": [
        {
          "name": "newOwner",
          "type": "address"
        }
      ],
      "name": "transferOwnership",
      "outputs": [],
      "payable": false,
      "stateMutability": "nonpayable",
      "type": "function"
    },
    {
      "anonymous": false,
      "inputs": [
        {
          "indexed": true,
          "name": "previousOwner",
          "type": "address"
        },
        {
          "indexed": true,
          "name": "newOwner",
          "type": "address"
        }
      ],
      "name": "OwnershipTransferred",
      "type": "event"
    },
    {
      "anonymous": false,
      "inputs": [
        {
          "indexed": true,
          "name": "account",
          "type": "address"
        }
      ],
      "name": "MinterAdded",
      "type": "event"
    },
    {
      "anonymous": false,
      "inputs": [
        {
          "indexed": true,
          "name": "account",
          "type": "address"
        }
      ],
      "name": "MinterRemoved",
      "type": "event"
    },
    {
      "anonymous": false,
      "inputs": [
        {
          "indexed": true,
          "name": "from",
          "type": "address"
        },
        {
          "indexed": true,
          "name": "to",
          "type": "address"
        },
        {
          "indexed": false,
          "name": "value",
          "type": "uint256"
        }
      ],
      "name": "Transfer",
      "type": "event"
    },
    {
      "anonymous": false,
      "inputs": [
        {
          "indexed": true,
          "name": "owner",
          "type": "address"
        },
        {
          "indexed": true,
          "name": "spender",
          "type": "address"
        },
        {
          "indexed": false,
          "name": "value",
          "type": "uint256"
        }
      ],
      "name": "Approval",
      "type": "event"
    },
    {
      "constant": false,
      "inputs": [
        {
          "name": "sender",
          "type": "address"
        }
      ],
      "name": "initialize",
      "outputs": [],
      "payable": false,
      "stateMutability": "nonpayable",
      "type": "function"
    },
    {
      "constant": false,
      "inputs": [
        {
          "name": "name",
          "type": "string"
        },
        {
          "name": "symbol",
          "type": "string"
        },
        {
          "name": "decimals",
          "type": "uint8"
        },
        {
          "name": "minters",
          "type": "address[]"
        },
        {
          "name": "sender",
          "type": "address"
        },
        {
          "name": "gasPrice",
          "type": "uint256"
        }
      ],
      "name": "initialize",
      "outputs": [],
      "payable": false,
      "stateMutability": "nonpayable",
      "type": "function"
    },
    {
      "constant": false,
      "inputs": [
        {
          "name": "name",
          "type": "string"
        },
        {
          "name": "symbol",
          "type": "string"
        },
        {
          "name": "decimals",
          "type": "uint8"
        }
      ],
      "name": "initialize",
      "outputs": [],
      "payable": false,
      "stateMutability": "nonpayable",
      "type": "function"
    },
    {
      "constant": false,
      "inputs": [
        {
          "name": "gasPrice",
          "type": "uint256"
        }
      ],
      "name": "setGasPrice",
      "outputs": [],
      "payable": false,
      "stateMutability": "nonpayable",
      "type": "function"
    },
    {
      "constant": true,
      "inputs": [
        {
          "name": "value",
          "type": "uint256"
        }
      ],
      "name": "_calculatePurchaseReturn",
      "outputs": [
        {
          "name": "",
          "type": "uint256"
        }
      ],
      "payable": false,
      "stateMutability": "view",
      "type": "function"
    },
    {
      "constant": true,
      "inputs": [
        {
          "name": "sellAmount",
          "type": "uint256"
        }
      ],
      "name": "_calculateSaleReturn",
      "outputs": [
        {
          "name": "",
          "type": "uint256"
        }
      ],
      "payable": false,
      "stateMutability": "view",
      "type": "function"
    },
    {
      "constant": true,
      "inputs": [
        {
          "name": "tokenAmount",
          "type": "uint256"
        }
      ],
      "name": "_calculateTokensPrice",
      "outputs": [
        {
          "name": "",
          "type": "uint256"
        }
      ],
      "payable": false,
      "stateMutability": "view",
      "type": "function"
    },
    {
      "constant": true,
      "inputs": [
        {
          "name": "x",
          "type": "uint256"
        }
      ],
      "name": "sqrt",
      "outputs": [
        {
          "name": "y",
          "type": "uint256"
        }
      ],
      "payable": false,
      "stateMutability": "pure",
      "type": "function"
    },
    {
      "constant": false,
      "inputs": [],
      "name": "buy",
      "outputs": [],
      "payable": true,
      "stateMutability": "payable",
      "type": "function"
    },
    {
      "constant": false,
      "inputs": [
        {
          "name": "sellAmount",
          "type": "uint256"
        }
      ],
      "name": "sell",
      "outputs": [],
      "payable": false,
      "stateMutability": "nonpayable",
      "type": "function"
    },
    {
      "constant": false,
      "inputs": [
        {
          "name": "beneficiary",
          "type": "address"
        }
      ],
      "name": "withdrawEther",
      "outputs": [],
      "payable": false,
      "stateMutability": "nonpayable",
      "type": "function"
    },
    {
      "constant": false,
      "inputs": [
        {
          "name": "beneficiary",
          "type": "address"
        }
      ],
      "name": "withdrawDaoTokens",
      "outputs": [],
      "payable": false,
      "stateMutability": "nonpayable",
      "type": "function"
    },
    {
      "constant": false,
      "inputs": [
        {
          "name": "beneficiary",
          "type": "address"
        }
      ],
      "name": "withdrawFounderTokens",
      "outputs": [],
      "payable": false,
      "stateMutability": "nonpayable",
      "type": "function"
    }
  ],
  "bytecode": "0x608060405234801561001057600080fd5b50613c47806100206000396000f3fe6080604052600436106101c2576000357c0100000000000000000000000000000000000000000000000000000000900463ffffffff1680630202bb8d146101c757806306fdde0314610216578063095ea7b3146102a65780631624f6c61461031957806318160ddd1461048557806323b872dd146104b0578063313ce56714610543578063395093511461057457806340c10f19146105e757806342966c681461065a57806362acb41414610695578063677342ce146106e65780636b1b24901461073557806370a0823114610760578063715018a6146107c5578063715cfadb146107dc57806379cc67901461082b5780638da5cb5b146108865780638f32d59b146108dd57806391cd06f01461090c57806395d89b4114610b3657806397d6e15114610bc6578063983b2d5614610c175780639865027514610c68578063a457c2d714610c7f578063a4ffee4714610cf2578063a6e2d4ef14610d1d578063a6f2ae3a14610d6c578063a9059cbb14610d76578063aa271e1a14610de9578063af933b5714610e52578063bf1fe42014610ea3578063c4d66de814610ede578063dd62ed3e14610f2f578063e4849b3214610fb4578063f2fde38b14610fef575b600080fd5b3480156101d357600080fd5b50610200600480360360208110156101ea57600080fd5b8101908080359060200190929190505050611040565b6040518082815260200191505060405180910390f35b34801561022257600080fd5b5061022b611284565b6040518080602001828103825283818151815260200191508051906020019080838360005b8381101561026b578082015181840152602081019050610250565b50505050905090810190601f1680156102985780820380516001836020036101000a031916815260200191505b509250505060405180910390f35b3480156102b257600080fd5b506102ff600480360360408110156102c957600080fd5b81019080803573ffffffffffffffffffffffffffffffffffffffff16906020019092919080359060200190929190505050611326565b604051808215151515815260200191505060405180910390f35b34801561032557600080fd5b506104836004803603606081101561033c57600080fd5b810190808035906020019064010000000081111561035957600080fd5b82018360208201111561036b57600080fd5b8035906020019184600183028401116401000000008311171561038d57600080fd5b91908080601f016020809104026020016040519081016040528093929190818152602001838380828437600081840152601f19601f820116905080830192505050505050509192919290803590602001906401000000008111156103f057600080fd5b82018360208201111561040257600080fd5b8035906020019184600183028401116401000000008311171561042457600080fd5b91908080601f016020809104026020016040519081016040528093929190818152602001838380828437600081840152601f19601f820116905080830192505050505050509192919290803560ff169060200190929190505050611453565b005b34801561049157600080fd5b5061049a6115d4565b6040518082815260200191505060405180910390f35b3480156104bc57600080fd5b50610529600480360360608110156104d357600080fd5b81019080803573ffffffffffffffffffffffffffffffffffffffff169060200190929190803573ffffffffffffffffffffffffffffffffffffffff169060200190929190803590602001909291905050506115de565b604051808215151515815260200191505060405180910390f35b34801561054f57600080fd5b506105586117e6565b604051808260ff1660ff16815260200191505060405180910390f35b34801561058057600080fd5b506105cd6004803603604081101561059757600080fd5b81019080803573ffffffffffffffffffffffffffffffffffffffff169060200190929190803590602001909291905050506117fd565b604051808215151515815260200191505060405180910390f35b3480156105f357600080fd5b506106406004803603604081101561060a57600080fd5b81019080803573ffffffffffffffffffffffffffffffffffffffff16906020019092919080359060200190929190505050611a34565b604051808215151515815260200191505060405180910390f35b34801561066657600080fd5b506106936004803603602081101561067d57600080fd5b8101908080359060200190929190505050611a5e565b005b3480156106a157600080fd5b506106e4600480360360208110156106b857600080fd5b81019080803573ffffffffffffffffffffffffffffffffffffffff169060200190929190505050611a6b565b005b3480156106f257600080fd5b5061071f6004803603602081101561070957600080fd5b8101908080359060200190929190505050611bc0565b6040518082815260200191505060405180910390f35b34801561074157600080fd5b5061074a611c66565b6040518082815260200191505060405180910390f35b34801561076c57600080fd5b506107af6004803603602081101561078357600080fd5b81019080803573ffffffffffffffffffffffffffffffffffffffff169060200190929190505050611c6d565b6040518082815260200191505060405180910390f35b3480156107d157600080fd5b506107da611cb6565b005b3480156107e857600080fd5b50610815600480360360208110156107ff57600080fd5b8101908080359060200190929190505050611d8c565b6040518082815260200191505060405180910390f35b34801561083757600080fd5b506108846004803603604081101561084e57600080fd5b81019080803573ffffffffffffffffffffffffffffffffffffffff16906020019092919080359060200190929190505050611ed4565b005b34801561089257600080fd5b5061089b611ee2565b604051808273ffffffffffffffffffffffffffffffffffffffff1673ffffffffffffffffffffffffffffffffffffffff16815260200191505060405180910390f35b3480156108e957600080fd5b506108f2611f0d565b604051808215151515815260200191505060405180910390f35b34801561091857600080fd5b50610b34600480360360c081101561092f57600080fd5b810190808035906020019064010000000081111561094c57600080fd5b82018360208201111561095e57600080fd5b8035906020019184600183028401116401000000008311171561098057600080fd5b91908080601f016020809104026020016040519081016040528093929190818152602001838380828437600081840152601f19601f820116905080830192505050505050509192919290803590602001906401000000008111156109e357600080fd5b8201836020820111156109f557600080fd5b80359060200191846001830284011164010000000083111715610a1757600080fd5b91908080601f016020809104026020016040519081016040528093929190818152602001838380828437600081840152601f19601f820116905080830192505050505050509192919290803560ff16906020019092919080359060200190640100000000811115610a8757600080fd5b820183602082011115610a9957600080fd5b80359060200191846020830284011164010000000083111715610abb57600080fd5b919080806020026020016040519081016040528093929190818152602001838360200280828437600081840152601f19601f820116905080830192505050505050509192919290803573ffffffffffffffffffffffffffffffffffffffff16906020019092919080359060200190929190505050611f66565b005b348015610b4257600080fd5b50610b4b61210a565b6040518080602001828103825283818151815260200191508051906020019080838360005b83811015610b8b578082015181840152602081019050610b70565b50505050905090810190601f168015610bb85780820380516001836020036101000a031916815260200191505b509250505060405180910390f35b348015610bd257600080fd5b50610c1560048036036020811015610be957600080fd5b81019080803573ffffffffffffffffffffffffffffffffffffffff1690602001909291905050506121ac565b005b348015610c2357600080fd5b50610c6660048036036020811015610c3a57600080fd5b81019080803573ffffffffffffffffffffffffffffffffffffffff169060200190929190505050612301565b005b348015610c7457600080fd5b50610c7d612321565b005b348015610c8b57600080fd5b50610cd860048036036040811015610ca257600080fd5b81019080803573ffffffffffffffffffffffffffffffffffffffff1690602001909291908035906020019092919050505061232c565b604051808215151515815260200191505060405180910390f35b348015610cfe57600080fd5b50610d07612563565b6040518082815260200191505060405180910390f35b348015610d2957600080fd5b50610d5660048036036020811015610d4057600080fd5b810190808035906020019092919050505061256a565b6040518082815260200191505060405180910390f35b610d746126dc565b005b348015610d8257600080fd5b50610dcf60048036036040811015610d9957600080fd5b81019080803573ffffffffffffffffffffffffffffffffffffffff169060200190929190803590602001909291905050506128fc565b604051808215151515815260200191505060405180910390f35b348015610df557600080fd5b50610e3860048036036020811015610e0c57600080fd5b81019080803573ffffffffffffffffffffffffffffffffffffffff169060200190929190505050612913565b604051808215151515815260200191505060405180910390f35b348015610e5e57600080fd5b50610ea160048036036020811015610e7557600080fd5b81019080803573ffffffffffffffffffffffffffffffffffffffff169060200190929190505050612930565b005b348015610eaf57600080fd5b50610edc60048036036020811015610ec657600080fd5b81019080803590602001909291905050506129bf565b005b348015610eea57600080fd5b50610f2d60048036036020811015610f0157600080fd5b81019080803573ffffffffffffffffffffffffffffffffffffffff1690602001909291905050506129ec565b005b348015610f3b57600080fd5b50610f9e60048036036040811015610f5257600080fd5b81019080803573ffffffffffffffffffffffffffffffffffffffff169060200190929190803573ffffffffffffffffffffffffffffffffffffffff169060200190929190505050612be2565b6040518082815260200191505060405180910390f35b348015610fc057600080fd5b50610fed60048036036020811015610fd757600080fd5b8101908080359060200190929190505050612c69565b005b348015610ffb57600080fd5b5061103e6004803603602081101561101257600080fd5b81019080803573ffffffffffffffffffffffffffffffffffffffff169060200190929190505050612dee565b005b60008161104b6115d4565b10156040805190810160405280601181526020017f4552524f525f53454c4c5f414d4f554e5400000000000000000000000000000081525090151561112b576040517f08c379a00000000000000000000000000000000000000000000000000000000081526004018080602001828103825283818151815260200191508051906020019080838360005b838110156110f05780820151818401526020810190506110d5565b50505050905090810190601f16801561111d5780820380516001836020036101000a031916815260200191505b509250505060405180910390fd5b506000670de0b6b3a7640000830190506000670de0b6b3a764000061114e6115d4565b01905060006112776005611269670de0b6b3a764000061125b6111c160026111b361119f670de0b6b3a76400006111918d60028f0a612e0d90919063ffffffff16565b612e2f90919063ffffffff16565b6402540be400612e5990919063ffffffff16565b612e2f90919063ffffffff16565b61124d6111df670de0b6b3a76400008b612e0d90919063ffffffff16565b61123f6402540be40061123161121d611209670de0b6b3a76400008f612e2f90919063ffffffff16565b6402540be400612e5990919063ffffffff16565b64174876e800612e9790919063ffffffff16565b612e0d90919063ffffffff16565b612e5990919063ffffffff16565b612e0d90919063ffffffff16565b612e2f90919063ffffffff16565b612e2f90919063ffffffff16565b9050809350505050919050565b606060338054600181600116156101000203166002900480601f01602080910402602001604051908101604052809291908181526020018280546001816001161561010002031660029004801561131c5780601f106112f15761010080835404028352916020019161131c565b820191906000526020600020905b8154815290600101906020018083116112ff57829003601f168201915b5050505050905090565b60008073ffffffffffffffffffffffffffffffffffffffff168373ffffffffffffffffffffffffffffffffffffffff161415151561136357600080fd5b81606960003373ffffffffffffffffffffffffffffffffffffffff1673ffffffffffffffffffffffffffffffffffffffff16815260200190815260200160002060008573ffffffffffffffffffffffffffffffffffffffff1673ffffffffffffffffffffffffffffffffffffffff168152602001908152602001600020819055508273ffffffffffffffffffffffffffffffffffffffff163373ffffffffffffffffffffffffffffffffffffffff167f8c5be1e5ebec7d5bd14f71427d1e84f3dd0314c0f7b2291e5b200ac8c7c3b925846040518082815260200191505060405180910390a36001905092915050565b600060019054906101000a900460ff16806114725750611471612eb8565b5b8061148957506000809054906101000a900460ff16155b1515611523576040517f08c379a000000000000000000000000000000000000000000000000000000000815260040180806020018281038252602e8152602001807f436f6e747261637420696e7374616e63652068617320616c726561647920626581526020017f656e20696e697469616c697a656400000000000000000000000000000000000081525060400191505060405180910390fd5b60008060019054906101000a900460ff1690506001600060016101000a81548160ff02191690831515021790555060016000806101000a81548160ff0219169083151502179055508360339080519060200190611581929190613b76565b508260349080519060200190611598929190613b76565b5081603560006101000a81548160ff021916908360ff16021790555080600060016101000a81548160ff02191690831515021790555050505050565b6000606a54905090565b600061166f82606960008773ffffffffffffffffffffffffffffffffffffffff1673ffffffffffffffffffffffffffffffffffffffff16815260200190815260200160002060003373ffffffffffffffffffffffffffffffffffffffff1673ffffffffffffffffffffffffffffffffffffffff16815260200190815260200160002054612e0d90919063ffffffff16565b606960008673ffffffffffffffffffffffffffffffffffffffff1673ffffffffffffffffffffffffffffffffffffffff16815260200190815260200160002060003373ffffffffffffffffffffffffffffffffffffffff1673ffffffffffffffffffffffffffffffffffffffff168152602001908152602001600020819055506116fa848484612ec9565b3373ffffffffffffffffffffffffffffffffffffffff168473ffffffffffffffffffffffffffffffffffffffff167f8c5be1e5ebec7d5bd14f71427d1e84f3dd0314c0f7b2291e5b200ac8c7c3b925606960008873ffffffffffffffffffffffffffffffffffffffff1673ffffffffffffffffffffffffffffffffffffffff16815260200190815260200160002060003373ffffffffffffffffffffffffffffffffffffffff1673ffffffffffffffffffffffffffffffffffffffff168152602001908152602001600020546040518082815260200191505060405180910390a3600190509392505050565b6000603560009054906101000a900460ff16905090565b60008073ffffffffffffffffffffffffffffffffffffffff168373ffffffffffffffffffffffffffffffffffffffff161415151561183a57600080fd5b6118c982606960003373ffffffffffffffffffffffffffffffffffffffff1673ffffffffffffffffffffffffffffffffffffffff16815260200190815260200160002060008673ffffffffffffffffffffffffffffffffffffffff1673ffffffffffffffffffffffffffffffffffffffff16815260200190815260200160002054612e9790919063ffffffff16565b606960003373ffffffffffffffffffffffffffffffffffffffff1673ffffffffffffffffffffffffffffffffffffffff16815260200190815260200160002060008573ffffffffffffffffffffffffffffffffffffffff1673ffffffffffffffffffffffffffffffffffffffff168152602001908152602001600020819055508273ffffffffffffffffffffffffffffffffffffffff163373ffffffffffffffffffffffffffffffffffffffff167f8c5be1e5ebec7d5bd14f71427d1e84f3dd0314c0f7b2291e5b200ac8c7c3b925606960003373ffffffffffffffffffffffffffffffffffffffff1673ffffffffffffffffffffffffffffffffffffffff16815260200190815260200160002060008773ffffffffffffffffffffffffffffffffffffffff1673ffffffffffffffffffffffffffffffffffffffff168152602001908152602001600020546040518082815260200191505060405180910390a36001905092915050565b6000611a3f33612913565b1515611a4a57600080fd5b611a548383613099565b6001905092915050565b611a6833826131ef565b50565b611a73611f0d565b1515611a7e57600080fd5b600061016954116040805190810160405280601d81526020017f4552524f525f5a45524f5f464f554e4445525f44414f5f544f4b454e53000000815250901515611b63576040517f08c379a00000000000000000000000000000000000000000000000000000000081526004018080602001828103825283818151815260200191508051906020019080838360005b83811015611b28578082015181840152602081019050611b0d565b50505050905090810190601f168015611b555780820380516001836020036101000a031916815260200191505b509250505060405180910390fd5b506000611b9261016b54611b84600261016954612e2f90919063ffffffff16565b612e0d90919063ffffffff16565b9050611b9f308383612ec9565b611bb58161016b54612e9790919063ffffffff16565b61016b819055505050565b600080821415611bd35760009050611c61565b600382111515611be65760019050611c61565b6000611c0f6002611c01600186612e9790919063ffffffff16565b612e2f90919063ffffffff16565b90508291505b81811015611c5f57809150611c586002611c4a83611c3c8588612e2f90919063ffffffff16565b612e9790919063ffffffff16565b612e2f90919063ffffffff16565b9050611c15565b505b919050565b6101675481565b6000606860008373ffffffffffffffffffffffffffffffffffffffff1673ffffffffffffffffffffffffffffffffffffffff168152602001908152602001600020549050919050565b611cbe611f0d565b1515611cc957600080fd5b600073ffffffffffffffffffffffffffffffffffffffff1661013460009054906101000a900473ffffffffffffffffffffffffffffffffffffffff1673ffffffffffffffffffffffffffffffffffffffff167f8be0079c531659141344cd1fd0a4f28419497f9722a3daafe3b4186f6b6457e060405160405180910390a3600061013460006101000a81548173ffffffffffffffffffffffffffffffffffffffff021916908373ffffffffffffffffffffffffffffffffffffffff160217905550565b600080670de0b6b3a7640000830190506000670de0b6b3a764000084611db06115d4565b010190506000611ec7670de0b6b3a7640000611eb9611e1f6002611e11611dfd670de0b6b3a7640000611def8b60028d0a612e0d90919063ffffffff16565b612e2f90919063ffffffff16565b6402540be400612e5990919063ffffffff16565b612e2f90919063ffffffff16565b611eab611e3d670de0b6b3a764000089612e0d90919063ffffffff16565b611e9d6402540be400611e8f611e7b611e67670de0b6b3a76400008d612e2f90919063ffffffff16565b6402540be400612e5990919063ffffffff16565b64174876e800612e9790919063ffffffff16565b612e0d90919063ffffffff16565b612e5990919063ffffffff16565b612e0d90919063ffffffff16565b612e2f90919063ffffffff16565b9050809350505050919050565b611ede8282613345565b5050565b600061013460009054906101000a900473ffffffffffffffffffffffffffffffffffffffff16905090565b600061013460009054906101000a900473ffffffffffffffffffffffffffffffffffffffff1673ffffffffffffffffffffffffffffffffffffffff163373ffffffffffffffffffffffffffffffffffffffff1614905090565b600060019054906101000a900460ff1680611f855750611f84612eb8565b5b80611f9c57506000809054906101000a900460ff16155b1515612036576040517f08c379a000000000000000000000000000000000000000000000000000000000815260040180806020018281038252602e8152602001807f436f6e747261637420696e7374616e63652068617320616c726561647920626581526020017f656e20696e697469616c697a656400000000000000000000000000000000000081525060400191505060405180910390fd5b60008060019054906101000a900460ff1690506001600060016101000a81548160ff02191690831515021790555060016000806101000a81548160ff021916908315150217905550612089878787611453565b61209230613543565b61209b30613682565b60008090505b84518110156120d5576120ca85828151811015156120bb57fe5b906020019060200201516136dc565b8060010190506120a1565b506120df836129ec565b816101688190555080600060016101000a81548160ff02191690831515021790555050505050505050565b606060348054600181600116156101000203166002900480601f0160208091040260200160405190810160405280929190818152602001828054600181600116156101000203166002900480156121a25780601f10612177576101008083540402835291602001916121a2565b820191906000526020600020905b81548152906001019060200180831161218557829003601f168201915b5050505050905090565b6121b4611f0d565b15156121bf57600080fd5b600061016954116040805190810160405280601d81526020017f4552524f525f5a45524f5f464f554e4445525f44414f5f544f4b454e530000008152509015156122a4576040517f08c379a00000000000000000000000000000000000000000000000000000000081526004018080602001828103825283818151815260200191508051906020019080838360005b8381101561226957808201518184015260208101905061224e565b50505050905090810190601f1680156122965780820380516001836020036101000a031916815260200191505b509250505060405180910390fd5b5060006122d361016a546122c5600261016954612e2f90919063ffffffff16565b612e0d90919063ffffffff16565b90506122e0308383612ec9565b6122f68161016a54612e9790919063ffffffff16565b61016a819055505050565b61230a33612913565b151561231557600080fd5b61231e816136dc565b50565b61232a33613682565b565b60008073ffffffffffffffffffffffffffffffffffffffff168373ffffffffffffffffffffffffffffffffffffffff161415151561236957600080fd5b6123f882606960003373ffffffffffffffffffffffffffffffffffffffff1673ffffffffffffffffffffffffffffffffffffffff16815260200190815260200160002060008673ffffffffffffffffffffffffffffffffffffffff1673ffffffffffffffffffffffffffffffffffffffff16815260200190815260200160002054612e0d90919063ffffffff16565b606960003373ffffffffffffffffffffffffffffffffffffffff1673ffffffffffffffffffffffffffffffffffffffff16815260200190815260200160002060008573ffffffffffffffffffffffffffffffffffffffff1673ffffffffffffffffffffffffffffffffffffffff168152602001908152602001600020819055508273ffffffffffffffffffffffffffffffffffffffff163373ffffffffffffffffffffffffffffffffffffffff167f8c5be1e5ebec7d5bd14f71427d1e84f3dd0314c0f7b2291e5b200ac8c7c3b925606960003373ffffffffffffffffffffffffffffffffffffffff1673ffffffffffffffffffffffffffffffffffffffff16815260200190815260200160002060008773ffffffffffffffffffffffffffffffffffffffff1673ffffffffffffffffffffffffffffffffffffffff168152602001908152602001600020546040518082815260200191505060405180910390a36001905092915050565b6101685481565b600080670de0b6b3a764000064174876e80002905060006126886126836125cb6125926115d4565b6125bd866125af60026402540be400612e5990919063ffffffff16565b612e5990919063ffffffff16565b612e5990919063ffffffff16565b6126756125f360026125db6115d4565b0a60026402540be4000a612e5990919063ffffffff16565b612667612655612614670de0b6b3a76400008c612e5990919063ffffffff16565b6126476002612639670de0b6b3a76400006402540be400612e5990919063ffffffff16565b612e5990919063ffffffff16565b612e5990919063ffffffff16565b6002890a612e9790919063ffffffff16565b612e9790919063ffffffff16565b612e9790919063ffffffff16565b611bc0565b905060006126cf6126976115d4565b6126c16402540be4006126b38787612e0d90919063ffffffff16565b612e2f90919063ffffffff16565b612e0d90919063ffffffff16565b9050809350505050919050565b600034116040805190810160405280600e81526020017f4552524f525f5a45524f5f4554480000000000000000000000000000000000008152509015156127be576040517f08c379a00000000000000000000000000000000000000000000000000000000081526004018080602001828103825283818151815260200191508051906020019080838360005b83811015612783578082015181840152602081019050612768565b50505050905090810190601f1680156127b05780820380516001836020036101000a031916815260200191505b509250505060405180910390fd5b5060006127ca3461256a565b90506127d63382613099565b6127ff6127ed600534612e2f90919063ffffffff16565b61016754612e9790919063ffffffff16565b61016781905550600061282b6128136117e6565b60ff16600a0a620f4240612e5990919063ffffffff16565b9050806101695410156128f8576000612856612851600434612e2f90919063ffffffff16565b61256a565b9050600061286e601434612e2f90919063ffffffff16565b9050826128878361016954612e9790919063ffffffff16565b11156128b1576128a36101695484612e0d90919063ffffffff16565b91506128ae82611d8c565b90505b6128bb3083613099565b6128d18161016754612e9790919063ffffffff16565b610167819055506128ee8261016954612e9790919063ffffffff16565b6101698190555050505b5050565b6000612909338484612ec9565b6001905092915050565b600061292982609d61373690919063ffffffff16565b9050919050565b612938611f0d565b151561294357600080fd5b6000612972610167543073ffffffffffffffffffffffffffffffffffffffff1631612e0d90919063ffffffff16565b90508173ffffffffffffffffffffffffffffffffffffffff166108fc829081150290604051600060405180830381858888f193505050501580156129ba573d6000803e3d6000fd5b505050565b6129c7611f0d565b15156129d257600080fd5b6000811115156129e157600080fd5b806101688190555050565b600060019054906101000a900460ff1680612a0b5750612a0a612eb8565b5b80612a2257506000809054906101000a900460ff16155b1515612abc576040517f08c379a000000000000000000000000000000000000000000000000000000000815260040180806020018281038252602e8152602001807f436f6e747261637420696e7374616e63652068617320616c726561647920626581526020017f656e20696e697469616c697a656400000000000000000000000000000000000081525060400191505060405180910390fd5b60008060019054906101000a900460ff1690506001600060016101000a81548160ff02191690831515021790555060016000806101000a81548160ff0219169083151502179055508161013460006101000a81548173ffffffffffffffffffffffffffffffffffffffff021916908373ffffffffffffffffffffffffffffffffffffffff16021790555061013460009054906101000a900473ffffffffffffffffffffffffffffffffffffffff1673ffffffffffffffffffffffffffffffffffffffff16600073ffffffffffffffffffffffffffffffffffffffff167f8be0079c531659141344cd1fd0a4f28419497f9722a3daafe3b4186f6b6457e060405160405180910390a380600060016101000a81548160ff0219169083151502179055505050565b6000606960008473ffffffffffffffffffffffffffffffffffffffff1673ffffffffffffffffffffffffffffffffffffffff16815260200190815260200160002060008373ffffffffffffffffffffffffffffffffffffffff1673ffffffffffffffffffffffffffffffffffffffff16815260200190815260200160002054905092915050565b610168543a11151515612c7857fe5b600081118015612c90575080612c8d33611c6d565b10155b6040805190810160405280601181526020017f4552524f525f53454c4c5f414d4f554e54000000000000000000000000000000815250901515612d6e576040517f08c379a00000000000000000000000000000000000000000000000000000000081526004018080602001828103825283818151815260200191508051906020019080838360005b83811015612d33578082015181840152602081019050612d18565b50505050905090810190601f168015612d605780820380516001836020036101000a031916815260200191505b509250505060405180910390fd5b506000612d7a82611040565b90503373ffffffffffffffffffffffffffffffffffffffff166108fc829081150290604051600060405180830381858888f19350505050158015612dc2573d6000803e3d6000fd5b50612dcd33836131ef565b612de38161016754612e0d90919063ffffffff16565b610167819055505050565b612df6611f0d565b1515612e0157600080fd5b612e0a816137ca565b50565b6000828211151515612e1e57600080fd5b600082840390508091505092915050565b60008082111515612e3f57600080fd5b60008284811515612e4c57fe5b0490508091505092915050565b600080831415612e6c5760009050612e91565b60008284029050828482811515612e7f57fe5b04141515612e8c57600080fd5b809150505b92915050565b6000808284019050838110151515612eae57600080fd5b8091505092915050565b600080303b90506000811491505090565b600073ffffffffffffffffffffffffffffffffffffffff168273ffffffffffffffffffffffffffffffffffffffff1614151515612f0557600080fd5b612f5781606860008673ffffffffffffffffffffffffffffffffffffffff1673ffffffffffffffffffffffffffffffffffffffff16815260200190815260200160002054612e0d90919063ffffffff16565b606860008573ffffffffffffffffffffffffffffffffffffffff1673ffffffffffffffffffffffffffffffffffffffff16815260200190815260200160002081905550612fec81606860008573ffffffffffffffffffffffffffffffffffffffff1673ffffffffffffffffffffffffffffffffffffffff16815260200190815260200160002054612e9790919063ffffffff16565b606860008473ffffffffffffffffffffffffffffffffffffffff1673ffffffffffffffffffffffffffffffffffffffff168152602001908152602001600020819055508173ffffffffffffffffffffffffffffffffffffffff168373ffffffffffffffffffffffffffffffffffffffff167fddf252ad1be2c89b69c2b068fc378daa952ba7f163c4a11628f55a4df523b3ef836040518082815260200191505060405180910390a3505050565b600073ffffffffffffffffffffffffffffffffffffffff168273ffffffffffffffffffffffffffffffffffffffff16141515156130d557600080fd5b6130ea81606a54612e9790919063ffffffff16565b606a8190555061314281606860008573ffffffffffffffffffffffffffffffffffffffff1673ffffffffffffffffffffffffffffffffffffffff16815260200190815260200160002054612e9790919063ffffffff16565b606860008473ffffffffffffffffffffffffffffffffffffffff1673ffffffffffffffffffffffffffffffffffffffff168152602001908152602001600020819055508173ffffffffffffffffffffffffffffffffffffffff16600073ffffffffffffffffffffffffffffffffffffffff167fddf252ad1be2c89b69c2b068fc378daa952ba7f163c4a11628f55a4df523b3ef836040518082815260200191505060405180910390a35050565b600073ffffffffffffffffffffffffffffffffffffffff168273ffffffffffffffffffffffffffffffffffffffff161415151561322b57600080fd5b61324081606a54612e0d90919063ffffffff16565b606a8190555061329881606860008573ffffffffffffffffffffffffffffffffffffffff1673ffffffffffffffffffffffffffffffffffffffff16815260200190815260200160002054612e0d90919063ffffffff16565b606860008473ffffffffffffffffffffffffffffffffffffffff1673ffffffffffffffffffffffffffffffffffffffff16815260200190815260200160002081905550600073ffffffffffffffffffffffffffffffffffffffff168273ffffffffffffffffffffffffffffffffffffffff167fddf252ad1be2c89b69c2b068fc378daa952ba7f163c4a11628f55a4df523b3ef836040518082815260200191505060405180910390a35050565b6133d481606960008573ffffffffffffffffffffffffffffffffffffffff1673ffffffffffffffffffffffffffffffffffffffff16815260200190815260200160002060003373ffffffffffffffffffffffffffffffffffffffff1673ffffffffffffffffffffffffffffffffffffffff16815260200190815260200160002054612e0d90919063ffffffff16565b606960008473ffffffffffffffffffffffffffffffffffffffff1673ffffffffffffffffffffffffffffffffffffffff16815260200190815260200160002060003373ffffffffffffffffffffffffffffffffffffffff1673ffffffffffffffffffffffffffffffffffffffff1681526020019081526020016000208190555061345e82826131ef565b3373ffffffffffffffffffffffffffffffffffffffff168273ffffffffffffffffffffffffffffffffffffffff167f8c5be1e5ebec7d5bd14f71427d1e84f3dd0314c0f7b2291e5b200ac8c7c3b925606960008673ffffffffffffffffffffffffffffffffffffffff1673ffffffffffffffffffffffffffffffffffffffff16815260200190815260200160002060003373ffffffffffffffffffffffffffffffffffffffff1673ffffffffffffffffffffffffffffffffffffffff168152602001908152602001600020546040518082815260200191505060405180910390a35050565b600060019054906101000a900460ff16806135625750613561612eb8565b5b8061357957506000809054906101000a900460ff16155b1515613613576040517f08c379a000000000000000000000000000000000000000000000000000000000815260040180806020018281038252602e8152602001807f436f6e747261637420696e7374616e63652068617320616c726561647920626581526020017f656e20696e697469616c697a656400000000000000000000000000000000000081525060400191505060405180910390fd5b60008060019054906101000a900460ff1690506001600060016101000a81548160ff02191690831515021790555060016000806101000a81548160ff021916908315150217905550613664826138c8565b80600060016101000a81548160ff0219169083151502179055505050565b61369681609d613a1790919063ffffffff16565b8073ffffffffffffffffffffffffffffffffffffffff167fe94479a9f7e1952cc78f2d6baab678adc1b772d936c6583def489e524cb6669260405160405180910390a250565b6136f081609d613ac690919063ffffffff16565b8073ffffffffffffffffffffffffffffffffffffffff167f6ae172837ea30b801fbfcdd4108aa1d5bf8ff775444fd70256b44e6bf3dfc3f660405160405180910390a250565b60008073ffffffffffffffffffffffffffffffffffffffff168273ffffffffffffffffffffffffffffffffffffffff161415151561377357600080fd5b8260000160008373ffffffffffffffffffffffffffffffffffffffff1673ffffffffffffffffffffffffffffffffffffffff16815260200190815260200160002060009054906101000a900460ff16905092915050565b600073ffffffffffffffffffffffffffffffffffffffff168173ffffffffffffffffffffffffffffffffffffffff161415151561380657600080fd5b8073ffffffffffffffffffffffffffffffffffffffff1661013460009054906101000a900473ffffffffffffffffffffffffffffffffffffffff1673ffffffffffffffffffffffffffffffffffffffff167f8be0079c531659141344cd1fd0a4f28419497f9722a3daafe3b4186f6b6457e060405160405180910390a38061013460006101000a81548173ffffffffffffffffffffffffffffffffffffffff021916908373ffffffffffffffffffffffffffffffffffffffff16021790555050565b600060019054906101000a900460ff16806138e757506138e6612eb8565b5b806138fe57506000809054906101000a900460ff16155b1515613998576040517f08c379a000000000000000000000000000000000000000000000000000000000815260040180806020018281038252602e8152602001807f436f6e747261637420696e7374616e63652068617320616c726561647920626581526020017f656e20696e697469616c697a656400000000000000000000000000000000000081525060400191505060405180910390fd5b60008060019054906101000a900460ff1690506001600060016101000a81548160ff02191690831515021790555060016000806101000a81548160ff0219169083151502179055506139e982612913565b15156139f9576139f8826136dc565b5b80600060016101000a81548160ff0219169083151502179055505050565b600073ffffffffffffffffffffffffffffffffffffffff168173ffffffffffffffffffffffffffffffffffffffff1614151515613a5357600080fd5b613a5d8282613736565b1515613a6857600080fd5b60008260000160008373ffffffffffffffffffffffffffffffffffffffff1673ffffffffffffffffffffffffffffffffffffffff16815260200190815260200160002060006101000a81548160ff0219169083151502179055505050565b600073ffffffffffffffffffffffffffffffffffffffff168173ffffffffffffffffffffffffffffffffffffffff1614151515613b0257600080fd5b613b0c8282613736565b151515613b1857600080fd5b60018260000160008373ffffffffffffffffffffffffffffffffffffffff1673ffffffffffffffffffffffffffffffffffffffff16815260200190815260200160002060006101000a81548160ff0219169083151502179055505050565b828054600181600116156101000203166002900490600052602060002090601f016020900481019282601f10613bb757805160ff1916838001178555613be5565b82800160010185558215613be5579182015b82811115613be4578251825591602001919060010190613bc9565b5b509050613bf29190613bf6565b5090565b613c1891905b80821115613c14576000816000905550600101613bfc565b5090565b9056fea165627a7a723058201db4a8d4d8ece1adb3648e4879a986c81f71faa1ccc75aef36f5b2b8e3c930a20029",
  "source": "pragma solidity ^0.5.0;\n\nimport \"openzeppelin-eth/contracts/ownership/Ownable.sol\";\nimport \"openzeppelin-eth/contracts/token/ERC20/ERC20Detailed.sol\";\nimport \"openzeppelin-eth/contracts/token/ERC20/ERC20Mintable.sol\";\nimport \"openzeppelin-eth/contracts/token/ERC20/ERC20Burnable.sol\";\nimport \"zos-lib/contracts/Initializable.sol\";\n\ncontract Token is Initializable, ERC20Detailed, ERC20Mintable, ERC20Burnable, Ownable {\n\n    string private constant ERROR_SELL_AMOUNT = \"ERROR_SELL_AMOUNT\";\n    string private constant ERROR_SENDER_ZERO = \"ERROR_SENDER_ZERO\";\n    string private constant ERROR_ZERO_ETH = \"ERROR_ZERO_ETH\";\n    string private constant ERROR_ZERO_FOUNDER_DAO_TOKENS = \"ERROR_ZERO_FOUNDER_DAO_TOKENS\";\n\n    uint internal constant TOKEN_PRICE_INITIAL = 0.0000001 ether;\n    uint internal constant TOKEN_PRICE_INCREMENTAL = 0.00000001 ether;\n\n    uint internal constant MAX_FOUNDER_DAO_TOKENS = 1000000;\n\n    uint public _reserveBalance;\n    uint public _gasPrice;\n\n    uint private _totalFounderDaoTokens;\n    uint private _founderTokensWithdrawn;\n    uint private _daoTokensWithdrawn;\n\n    modifier validGasPrice() {\n        assert(tx.gasprice <= _gasPrice);\n        _;\n    }\n\n    function initialize(\n        string memory name, string memory symbol, uint8 decimals,\n        address[] memory minters, address sender, uint gasPrice\n    ) public initializer {\n        ERC20Detailed.initialize(name, symbol, decimals);\n\n        // Initialize the minter and pauser roles, and renounce them\n        ERC20Mintable.initialize(address(this));\n        _removeMinter(address(this));\n\n        // Add the requested minters and pausers (this can be done after renouncing since\n        // these are the internal calls)\n        for (uint i = 0; i < minters.length; ++i) {\n            _addMinter(minters[i]);\n        }\n\n        Ownable.initialize(sender);\n\n        _gasPrice = gasPrice;\n    }\n    \n    function setGasPrice(uint gasPrice) public onlyOwner {\n        require(gasPrice > 0);\n        _gasPrice = gasPrice;\n    }\n\n    function _calculatePurchaseReturn(uint value) public view returns (uint) {\n        uint tokenPriceInitial = TOKEN_PRICE_INITIAL * 1e18;\n\n        uint root = sqrt(\n            (tokenPriceInitial**2).add(\n                (TOKEN_PRICE_INCREMENTAL.mul(1e18)).mul(2).mul(value.mul(1e18))\n            ).add(\n                ((TOKEN_PRICE_INCREMENTAL)**2).mul(totalSupply()**2)\n            ).add(\n                TOKEN_PRICE_INCREMENTAL.mul(2).mul(tokenPriceInitial).mul(totalSupply())\n            )\n        );\n\n        uint tokenAmount = \n            root.sub(\n                tokenPriceInitial\n            ).div(\n                TOKEN_PRICE_INCREMENTAL\n            ).sub(\n                totalSupply()\n            );\n\n        return tokenAmount;\n    }\n\n    function _calculateSaleReturn(uint sellAmount) public view returns (uint) {\n        require(totalSupply() >= sellAmount, ERROR_SELL_AMOUNT);\n\n        uint tokens = (sellAmount + 1e18);\n        uint tokenSupply = (totalSupply() + 1e18);\n\n        uint etherAmount =      \n            TOKEN_PRICE_INITIAL.add(\n                TOKEN_PRICE_INCREMENTAL.mul(tokenSupply.div(1e18))\n            ).sub(\n                TOKEN_PRICE_INCREMENTAL\n            ).mul(\n                tokens.sub(1e18)\n            ).sub(\n                (TOKEN_PRICE_INCREMENTAL.mul(((tokens**2).sub(tokens)).div(1e18))).div(2)\n            ).div(\n                1e18\n            ).div(5);\n        \n        return etherAmount;\n    }\n\n    function _calculateTokensPrice(uint tokenAmount) public view returns (uint) {\n        uint tokens = (tokenAmount + 1e18);\n        uint tokenSupply = (totalSupply() + tokenAmount + 1e18);\n\n        uint etherAmount =      \n            TOKEN_PRICE_INITIAL.add(\n                TOKEN_PRICE_INCREMENTAL.mul(tokenSupply.div(1e18))\n            ).sub(\n                TOKEN_PRICE_INCREMENTAL\n            ).mul(\n                tokens.sub(1e18)\n            ).sub(\n                (TOKEN_PRICE_INCREMENTAL.mul(((tokens**2).sub(tokens)).div(1e18))).div(2)\n            ).div(\n                1e18\n            );\n        \n        return etherAmount;\n    }\n\n    function sqrt(uint x) public pure returns (uint y) {\n        if (x == 0) return 0;\n        else if (x <= 3) return 1;\n        uint z = x.add(1).div(2);\n        y = x;\n        while (z < y) {\n            y = z;\n            z = x.div(z).add(z).div(2);\n        }\n    }\n\n    function buy() public payable {\n        require(msg.value > 0, ERROR_ZERO_ETH);\n\n        // buy user tokens\n        uint tokensToMint = _calculatePurchaseReturn(msg.value);\n        _mint(address(msg.sender), tokensToMint);\n        _reserveBalance = _reserveBalance.add(msg.value.div(5));\n\n        uint maxTokensWithDecimals = MAX_FOUNDER_DAO_TOKENS.mul(10 ** uint(decimals()));\n        \n        // buy founder&dao tokens\n        if (_totalFounderDaoTokens < maxTokensWithDecimals) {\n            uint founderDaoTokensToMint = _calculatePurchaseReturn(msg.value.div(4));\n            uint founderDaoReserve = msg.value.div(20);\n\n            // Special case: totalFounderDaoTokens + founderDaoTokensToMint > maxTokensWithDecimals\n            // only mint till 1000000 reached and add only price for purchased tokens to reserve\n            if (_totalFounderDaoTokens.add(founderDaoTokensToMint) > maxTokensWithDecimals) {\n                founderDaoTokensToMint = maxTokensWithDecimals.sub(_totalFounderDaoTokens);\n                founderDaoReserve = _calculateTokensPrice(founderDaoTokensToMint);\n            }\n\n            _mint(address(this), founderDaoTokensToMint);\n            _reserveBalance = _reserveBalance.add(founderDaoReserve);\n\n            _totalFounderDaoTokens = _totalFounderDaoTokens.add(founderDaoTokensToMint);\n        }\n    }\n\n    function sell(uint sellAmount) validGasPrice public {\n        require(sellAmount > 0 && balanceOf(msg.sender) >= sellAmount, ERROR_SELL_AMOUNT);\n        uint ethAmount = _calculateSaleReturn(sellAmount);\n\n        msg.sender.transfer(ethAmount);\n        _burn(address(msg.sender), sellAmount);\n        _reserveBalance = _reserveBalance.sub(ethAmount);\n    }\n\n    function withdrawEther(address payable beneficiary) public onlyOwner {\n        uint amount = address(this).balance.sub(_reserveBalance);\n\n        beneficiary.transfer(amount);\n    }\n\n    function withdrawDaoTokens(address payable beneficiary) public onlyOwner {\n        require(_totalFounderDaoTokens > 0, ERROR_ZERO_FOUNDER_DAO_TOKENS);\n\n        uint tokensToWithdraw = _totalFounderDaoTokens.div(2).sub(_daoTokensWithdrawn);\n\n        _transfer(address(this), beneficiary, tokensToWithdraw);\n\n        _daoTokensWithdrawn = _daoTokensWithdrawn.add(tokensToWithdraw);\n    }\n\n    function withdrawFounderTokens(address payable beneficiary) public onlyOwner {\n        require(_totalFounderDaoTokens > 0, ERROR_ZERO_FOUNDER_DAO_TOKENS);\n\n        uint tokensToWithdraw = _totalFounderDaoTokens.div(2).sub(_founderTokensWithdrawn);\n\n        _transfer(address(this), beneficiary, tokensToWithdraw);\n\n        _founderTokensWithdrawn = _founderTokensWithdrawn.add(tokensToWithdraw);\n    }\n\n}",
  "sourcePath": "/home/daniel/Development/totem/packages/token/contracts/Token.sol",
  "compiler": {
    "name": "solc",
    "version": "0.5.0+commit.1d4f565a.Emscripten.clang"
  },
  "schemaVersion": "3.0.6",
  "updatedAt": "2019-04-08T14:20:16.377Z",
  "devdoc": {
    "methods": {
      "allowance(address,address)": {
        "details": "Function to check the amount of tokens that an owner allowed to a spender.",
        "params": {
          "owner": "address The address which owns the funds.",
          "spender": "address The address which will spend the funds."
        },
        "return": "A uint256 specifying the amount of tokens still available for the spender."
      },
      "approve(address,uint256)": {
        "details": "Approve the passed address to spend the specified amount of tokens on behalf of msg.sender. Beware that changing an allowance with this method brings the risk that someone may use both the old and the new allowance by unfortunate transaction ordering. One possible solution to mitigate this race condition is to first reduce the spender's allowance to 0 and set the desired value afterwards: https://github.com/ethereum/EIPs/issues/20#issuecomment-263524729",
        "params": {
          "spender": "The address which will spend the funds.",
          "value": "The amount of tokens to be spent."
        }
      },
      "balanceOf(address)": {
        "details": "Gets the balance of the specified address.",
        "params": {
          "owner": "The address to query the balance of."
        },
        "return": "An uint256 representing the amount owned by the passed address."
      },
      "burn(uint256)": {
        "details": "Burns a specific amount of tokens.",
        "params": {
          "value": "The amount of token to be burned."
        }
      },
      "burnFrom(address,uint256)": {
        "details": "Burns a specific amount of tokens from the target address and decrements allowance",
        "params": {
          "from": "address The address which you want to send tokens from",
          "value": "uint256 The amount of token to be burned"
        }
      },
      "decimals()": {
        "return": "the number of decimals of the token."
      },
      "decreaseAllowance(address,uint256)": {
        "details": "Decrease the amount of tokens that an owner allowed to a spender. approve should be called when allowed_[_spender] == 0. To decrement allowed value is better to use this function to avoid 2 calls (and wait until the first transaction is mined) From MonolithDAO Token.sol Emits an Approval event.",
        "params": {
          "spender": "The address which will spend the funds.",
          "subtractedValue": "The amount of tokens to decrease the allowance by."
        }
      },
      "increaseAllowance(address,uint256)": {
        "details": "Increase the amount of tokens that an owner allowed to a spender. approve should be called when allowed_[_spender] == 0. To increment allowed value is better to use this function to avoid 2 calls (and wait until the first transaction is mined) From MonolithDAO Token.sol Emits an Approval event.",
        "params": {
          "addedValue": "The amount of tokens to increase the allowance by.",
          "spender": "The address which will spend the funds."
        }
      },
      "initialize(address)": {
        "details": "The Ownable constructor sets the original `owner` of the contract to the sender account."
      },
      "isOwner()": {
        "return": "true if `msg.sender` is the owner of the contract."
      },
      "mint(address,uint256)": {
        "details": "Function to mint tokens",
        "params": {
          "to": "The address that will receive the minted tokens.",
          "value": "The amount of tokens to mint."
        },
        "return": "A boolean that indicates if the operation was successful."
      },
      "name()": {
        "return": "the name of the token."
      },
      "owner()": {
        "return": "the address of the owner."
      },
      "renounceOwnership()": {
        "details": "Allows the current owner to relinquish control of the contract."
      },
      "symbol()": {
        "return": "the symbol of the token."
      },
      "totalSupply()": {
        "details": "Total number of tokens in existence"
      },
      "transfer(address,uint256)": {
        "details": "Transfer token for a specified address",
        "params": {
          "to": "The address to transfer to.",
          "value": "The amount to be transferred."
        }
      },
      "transferFrom(address,address,uint256)": {
        "details": "Transfer tokens from one address to another. Note that while this function emits an Approval event, this is not required as per the specification, and other compliant implementations may not emit the event.",
        "params": {
          "from": "address The address which you want to send tokens from",
          "to": "address The address which you want to transfer to",
          "value": "uint256 the amount of tokens to be transferred"
        }
      },
      "transferOwnership(address)": {
        "details": "Allows the current owner to transfer control of the contract to a newOwner.",
        "params": {
          "newOwner": "The address to transfer ownership to."
        }
      }
    }
  },
  "userdoc": {
    "methods": {
      "renounceOwnership()": {
        "notice": "Renouncing to ownership will leave the contract without an owner. It will not be possible to call the functions with the `onlyOwner` modifier anymore."
      }
    }
  }
}