{
  "fileName": "IdentityRegistry.sol",
  "contractName": "IdentityRegistry",
  "source": "// SPDX-License-Identifier: GPL-3.0-or-later\n\npragma solidity ^0.6.0;\n\nimport \"@openzeppelin/upgrades/contracts/Initializable.sol\";\n\ncontract IdentityRegistry is Initializable {\n\n    mapping(address => bytes) private _didDocuments;\n\n    event NewIdentity(address subject, bytes didDocument);\n    event RevokeIdentity(address subject);\n\n    function setDidDocument(bytes memory didDocument) public {\n        _didDocuments[msg.sender] = didDocument;\n\n        emit NewIdentity(msg.sender, didDocument);\n    }\n\n    function revokeDidDocument() public {\n        _didDocuments[msg.sender] = '';\n\n        emit RevokeIdentity(msg.sender);\n    }\n\n    function getDidDocument(address subject) external view returns (bytes memory) {\n        return _didDocuments[subject];\n    }\n\n}\n",
  "sourcePath": "contracts/IdentityRegistry.sol",
  "abi": [
    {
      "anonymous": false,
      "inputs": [
        {
          "indexed": false,
          "internalType": "address",
          "name": "subject",
          "type": "address"
        },
        {
          "indexed": false,
          "internalType": "bytes",
          "name": "didDocument",
          "type": "bytes"
        }
      ],
      "name": "NewIdentity",
      "type": "event"
    },
    {
      "anonymous": false,
      "inputs": [
        {
          "indexed": false,
          "internalType": "address",
          "name": "subject",
          "type": "address"
        }
      ],
      "name": "RevokeIdentity",
      "type": "event"
    },
    {
      "inputs": [
        {
          "internalType": "address",
          "name": "subject",
          "type": "address"
        }
      ],
      "name": "getDidDocument",
      "outputs": [
        {
          "internalType": "bytes",
          "name": "",
          "type": "bytes"
        }
      ],
      "stateMutability": "view",
      "type": "function"
    },
    {
      "inputs": [],
      "name": "revokeDidDocument",
      "outputs": [],
      "stateMutability": "nonpayable",
      "type": "function"
    },
    {
      "inputs": [
        {
          "internalType": "bytes",
          "name": "didDocument",
          "type": "bytes"
        }
      ],
      "name": "setDidDocument",
      "outputs": [],
      "stateMutability": "nonpayable",
      "type": "function"
    }
  ],
  "bytecode": "0x608060405234801561001057600080fd5b506105f3806100206000396000f3fe608060405234801561001057600080fd5b50600436106100415760003560e01c80636337faf914610046578063a745de2c14610101578063fe79ae44146101be575b600080fd5b6100ff6004803603602081101561005c57600080fd5b810190808035906020019064010000000081111561007957600080fd5b82018360208201111561008b57600080fd5b803590602001918460018302840111640100000000831117156100ad57600080fd5b91908080601f016020809104026020016040519081016040528093929190818152602001838380828437600081840152601f19601f8201169050808301925050505050505091929192905050506101c8565b005b6101436004803603602081101561011757600080fd5b81019080803573ffffffffffffffffffffffffffffffffffffffff1690602001909291905050506102ef565b6040518080602001828103825283818151815260200191508051906020019080838360005b83811015610183578082015181840152602081019050610168565b50505050905090810190601f1680156101b05780820380516001836020036101000a031916815260200191505b509250505060405180910390f35b6101c66103d0565b005b80603360003373ffffffffffffffffffffffffffffffffffffffff1673ffffffffffffffffffffffffffffffffffffffff168152602001908152602001600020908051906020019061021b929190610498565b507fd283fc3224a7e6f18c5b5e7ef33b1f5719e112adba9e1106b946b35f6527c8993382604051808373ffffffffffffffffffffffffffffffffffffffff1673ffffffffffffffffffffffffffffffffffffffff16815260200180602001828103825283818151815260200191508051906020019080838360005b838110156102b1578082015181840152602081019050610296565b50505050905090810190601f1680156102de5780820380516001836020036101000a031916815260200191505b50935050505060405180910390a150565b6060603360008373ffffffffffffffffffffffffffffffffffffffff1673ffffffffffffffffffffffffffffffffffffffff1681526020019081526020016000208054600181600116156101000203166002900480601f0160208091040260200160405190810160405280929190818152602001828054600181600116156101000203166002900480156103c45780601f10610399576101008083540402835291602001916103c4565b820191906000526020600020905b8154815290600101906020018083116103a757829003601f168201915b50505050509050919050565b60405180602001604052806000815250603360003373ffffffffffffffffffffffffffffffffffffffff1673ffffffffffffffffffffffffffffffffffffffff1681526020019081526020016000209080519060200190610432929190610518565b507fe282263c9ce06a08c6c71c948e3ad228bdca00e39061dbba30c075383c09da9233604051808273ffffffffffffffffffffffffffffffffffffffff1673ffffffffffffffffffffffffffffffffffffffff16815260200191505060405180910390a1565b828054600181600116156101000203166002900490600052602060002090601f016020900481019282601f106104d957805160ff1916838001178555610507565b82800160010185558215610507579182015b828111156105065782518255916020019190600101906104eb565b5b5090506105149190610598565b5090565b828054600181600116156101000203166002900490600052602060002090601f016020900481019282601f1061055957805160ff1916838001178555610587565b82800160010185558215610587579182015b8281111561058657825182559160200191906001019061056b565b5b5090506105949190610598565b5090565b6105ba91905b808211156105b657600081600090555060010161059e565b5090565b9056fea2646970667358221220aba7a3a5dd72ea0c4f41a59dec2068a5934532b56e1d9ca4bd835a1ede73f3f364736f6c63430006080033",
  "compiler": {
    "name": "solc",
    "version": "0.6.8+commit.0bbfe453.Emscripten.clang",
    "optimizer": {
      "enabled": false,
      "runs": 200
    },
    "evmVersion": "petersburg"
  }
}