{
  "contractName": "Badges",
  "abi": [
    {
      "constant": true,
      "inputs": [
        {
          "name": "",
          "type": "uint256"
        }
      ],
      "name": "_badges",
      "outputs": [
        {
          "name": "",
          "type": "string"
        }
      ],
      "payable": false,
      "stateMutability": "view",
      "type": "function"
    },
    {
      "constant": false,
      "inputs": [],
      "name": "renounceOwnership",
      "outputs": [],
      "payable": false,
      "stateMutability": "nonpayable",
      "type": "function"
    },
    {
      "constant": true,
      "inputs": [],
      "name": "owner",
      "outputs": [
        {
          "name": "",
          "type": "address"
        }
      ],
      "payable": false,
      "stateMutability": "view",
      "type": "function"
    },
    {
      "constant": true,
      "inputs": [],
      "name": "isOwner",
      "outputs": [
        {
          "name": "",
          "type": "bool"
        }
      ],
      "payable": false,
      "stateMutability": "view",
      "type": "function"
    },
    {
      "constant": false,
      "inputs": [
        {
          "name": "newOwner",
          "type": "address"
        }
      ],
      "name": "transferOwnership",
      "outputs": [],
      "payable": false,
      "stateMutability": "nonpayable",
      "type": "function"
    },
    {
      "anonymous": false,
      "inputs": [
        {
          "indexed": true,
          "name": "previousOwner",
          "type": "address"
        },
        {
          "indexed": true,
          "name": "newOwner",
          "type": "address"
        }
      ],
      "name": "OwnershipTransferred",
      "type": "event"
    },
    {
      "constant": false,
      "inputs": [
        {
          "name": "sender",
          "type": "address"
        },
        {
          "name": "token",
          "type": "address"
        }
      ],
      "name": "initialize",
      "outputs": [],
      "payable": false,
      "stateMutability": "nonpayable",
      "type": "function"
    },
    {
      "constant": false,
      "inputs": [
        {
          "name": "sender",
          "type": "address"
        }
      ],
      "name": "initialize",
      "outputs": [],
      "payable": false,
      "stateMutability": "nonpayable",
      "type": "function"
    },
    {
      "constant": true,
      "inputs": [],
      "name": "getBadgesLength",
      "outputs": [
        {
          "name": "length",
          "type": "uint256"
        }
      ],
      "payable": false,
      "stateMutability": "view",
      "type": "function"
    },
    {
      "constant": true,
      "inputs": [
        {
          "name": "tokenURI",
          "type": "string"
        }
      ],
      "name": "getBadgeData",
      "outputs": [
        {
          "name": "price",
          "type": "uint256"
        },
        {
          "name": "expires",
          "type": "uint256"
        }
      ],
      "payable": false,
      "stateMutability": "view",
      "type": "function"
    },
    {
      "constant": false,
      "inputs": [
        {
          "name": "tokenURI",
          "type": "string"
        }
      ],
      "name": "buy",
      "outputs": [],
      "payable": true,
      "stateMutability": "payable",
      "type": "function"
    },
    {
      "constant": false,
      "inputs": [
        {
          "name": "tokenURI",
          "type": "string"
        },
        {
          "name": "price",
          "type": "uint256"
        },
        {
          "name": "expires",
          "type": "uint256"
        }
      ],
      "name": "createBadge",
      "outputs": [],
      "payable": false,
      "stateMutability": "nonpayable",
      "type": "function"
    },
    {
      "constant": false,
      "inputs": [
        {
          "name": "tokenURI",
          "type": "string"
        },
        {
          "name": "expires",
          "type": "uint256"
        }
      ],
      "name": "makeAvailableUntil",
      "outputs": [],
      "payable": false,
      "stateMutability": "nonpayable",
      "type": "function"
    },
    {
      "constant": false,
      "inputs": [
        {
          "name": "beneficiary",
          "type": "address"
        }
      ],
      "name": "withdraw",
      "outputs": [],
      "payable": false,
      "stateMutability": "nonpayable",
      "type": "function"
    }
  ],
  "bytecode": "0x608060405234801561001057600080fd5b50611bb3806100206000396000f3fe6080604052600436106100c5576000357c0100000000000000000000000000000000000000000000000000000000900463ffffffff1680630c563cd4146100ca57806324fe27ac1461017e578063485cc9551461025a578063492cc769146102cb57806351cff8d914610386578063715018a6146103d757806375470adf146103ee5780638da5cb5b146104195780638f32d59b146104705780639a73d4d81461049f578063aa2cd63e14610571578063c4d66de814610654578063f2fde38b146106a5575b600080fd5b3480156100d657600080fd5b50610103600480360360208110156100ed57600080fd5b81019080803590602001909291905050506106f6565b6040518080602001828103825283818151815260200191508051906020019080838360005b83811015610143578082015181840152602081019050610128565b50505050905090810190601f1680156101705780820380516001836020036101000a031916815260200191505b509250505060405180910390f35b34801561018a57600080fd5b50610258600480360360608110156101a157600080fd5b81019080803590602001906401000000008111156101be57600080fd5b8201836020820111156101d057600080fd5b803590602001918460018302840111640100000000831117156101f257600080fd5b91908080601f016020809104026020016040519081016040528093929190818152602001838380828437600081840152601f19601f82011690508083019250505050505050919291929080359060200190929190803590602001909291905050506107b1565b005b34801561026657600080fd5b506102c96004803603604081101561027d57600080fd5b81019080803573ffffffffffffffffffffffffffffffffffffffff169060200190929190803573ffffffffffffffffffffffffffffffffffffffff169060200190929190505050610a36565b005b610384600480360360208110156102e157600080fd5b81019080803590602001906401000000008111156102fe57600080fd5b82018360208201111561031057600080fd5b8035906020019184600183028401116401000000008311171561033257600080fd5b91908080601f016020809104026020016040519081016040528093929190818152602001838380828437600081840152601f19601f820116905080830192505050505050509192919290505050610dd7565b005b34801561039257600080fd5b506103d5600480360360208110156103a957600080fd5b81019080803573ffffffffffffffffffffffffffffffffffffffff169060200190929190505050611332565b005b3480156103e357600080fd5b506103ec6113a6565b005b3480156103fa57600080fd5b5061040361147a565b6040518082815260200191505060405180910390f35b34801561042557600080fd5b5061042e611487565b604051808273ffffffffffffffffffffffffffffffffffffffff1673ffffffffffffffffffffffffffffffffffffffff16815260200191505060405180910390f35b34801561047c57600080fd5b506104856114b1565b604051808215151515815260200191505060405180910390f35b3480156104ab57600080fd5b5061056f600480360360408110156104c257600080fd5b81019080803590602001906401000000008111156104df57600080fd5b8201836020820111156104f157600080fd5b8035906020019184600183028401116401000000008311171561051357600080fd5b91908080601f016020809104026020016040519081016040528093929190818152602001838380828437600081840152601f19601f82011690508083019250505050505050919291929080359060200190929190505050611509565b005b34801561057d57600080fd5b506106376004803603602081101561059457600080fd5b81019080803590602001906401000000008111156105b157600080fd5b8201836020820111156105c357600080fd5b803590602001918460018302840111640100000000831117156105e557600080fd5b91908080601f016020809104026020016040519081016040528093929190818152602001838380828437600081840152601f19601f8201169050808301925050505050505091929192905050506116de565b604051808381526020018281526020019250505060405180910390f35b34801561066057600080fd5b506106a36004803603602081101561067757600080fd5b81019080803573ffffffffffffffffffffffffffffffffffffffff1690602001909291905050506117c2565b005b3480156106b157600080fd5b506106f4600480360360208110156106c857600080fd5b81019080803573ffffffffffffffffffffffffffffffffffffffff1690602001909291905050506119b6565b005b60698181548110151561070557fe5b906000526020600020016000915090508054600181600116156101000203166002900480601f0160208091040260200160405190810160405280929190818152602001828054600181600116156101000203166002900480156107a95780601f1061077e576101008083540402835291602001916107a9565b820191906000526020600020905b81548152906001019060200180831161078c57829003601f168201915b505050505081565b6107b96114b1565b15156107c457600080fd5b60006067846040518082805190602001908083835b6020831015156107fe57805182526020820191506020810190506020830392506107d9565b6001836020036101000a038019825116818451168082178552505050505050905001915050908152602001604051809103902054146040805190810160405280601b81526020017f4552524f525f42414447455f414c52454144595f435245415445440000000000815250901515610911576040517f08c379a00000000000000000000000000000000000000000000000000000000081526004018080602001828103825283818151815260200191508051906020019080838360005b838110156108d65780820151818401526020810190506108bb565b50505050905090810190601f1680156109035780820380516001836020036101000a031916815260200191505b509250505060405180910390fd5b50816067846040518082805190602001908083835b60208310151561094b5780518252602082019150602081019050602083039250610926565b6001836020036101000a038019825116818451168082178552505050505050905001915050908152602001604051809103902081905550806068846040518082805190602001908083835b6020831015156109bb5780518252602082019150602081019050602083039250610996565b6001836020036101000a0380198251168184511680821785525050505050509050019150509081526020016040518091039020819055506069839080600181540180825580915050906001820390600052602060002001600090919290919091509080519060200190610a2f929190611ae2565b5050505050565b600060019054906101000a900460ff1680610a555750610a546119d5565b5b80610a6c57506000809054906101000a900460ff16155b1515610b06576040517f08c379a000000000000000000000000000000000000000000000000000000000815260040180806020018281038252602e8152602001807f436f6e747261637420696e7374616e63652068617320616c726561647920626581526020017f656e20696e697469616c697a656400000000000000000000000000000000000081525060400191505060405180910390fd5b60008060019054906101000a900460ff1690506001600060016101000a81548160ff02191690831515021790555060016000806101000a81548160ff021916908315150217905550600073ffffffffffffffffffffffffffffffffffffffff168373ffffffffffffffffffffffffffffffffffffffff1614156040805190810160405280601181526020017f4552524f525f53454e4445525f5a45524f000000000000000000000000000000815250901515610c5d576040517f08c379a00000000000000000000000000000000000000000000000000000000081526004018080602001828103825283818151815260200191508051906020019080838360005b83811015610c22578082015181840152602081019050610c07565b50505050905090810190601f168015610c4f5780820380516001836020036101000a031916815260200191505b509250505060405180910390fd5b50600073ffffffffffffffffffffffffffffffffffffffff168273ffffffffffffffffffffffffffffffffffffffff1614156040805190810160405280601081526020017f4552524f525f544f4b454e5f5a45524f00000000000000000000000000000000815250901515610d6d576040517f08c379a00000000000000000000000000000000000000000000000000000000081526004018080602001828103825283818151815260200191508051906020019080838360005b83811015610d32578082015181840152602081019050610d17565b50505050905090810190601f168015610d5f5780820380516001836020036101000a031916815260200191505b509250505060405180910390fd5b50610d77836119e6565b81606660006101000a81548173ffffffffffffffffffffffffffffffffffffffff021916908373ffffffffffffffffffffffffffffffffffffffff16021790555080600060016101000a81548160ff021916908315150217905550505050565b60006068826040518082805190602001908083835b602083101515610e115780518252602082019150602081019050602083039250610dec565b6001836020036101000a038019825116818451168082178552505050505050905001915050908152602001604051809103902054116040805190810160405280601581526020017f4552524f525f42414447455f4e4f545f464f554e440000000000000000000000815250901515610f24576040517f08c379a00000000000000000000000000000000000000000000000000000000081526004018080602001828103825283818151815260200191508051906020019080838360005b83811015610ee9578082015181840152602081019050610ece565b50505050905090810190601f168015610f165780820380516001836020036101000a031916815260200191505b509250505060405180910390fd5b506067816040518082805190602001908083835b602083101515610f5d5780518252602082019150602081019050602083039250610f38565b6001836020036101000a0380198251168184511680821785525050505050509050019150509081526020016040518091039020543410156040805190810160405280601481526020017f4552524f525f4e4f545f454e4f5547485f455448000000000000000000000000815250901515611072576040517f08c379a00000000000000000000000000000000000000000000000000000000081526004018080602001828103825283818151815260200191508051906020019080838360005b8381101561103757808201518184015260208101905061101c565b50505050905090810190601f1680156110645780820380516001836020036101000a031916815260200191505b509250505060405180910390fd5b506068816040518082805190602001908083835b6020831015156110ab5780518252602082019150602081019050602083039250611086565b6001836020036101000a03801982511681845116808217855250505050505090500191505090815260200160405180910390205443106040805190810160405280601381526020017f4552524f525f42414447455f45585049524544000000000000000000000000008152509015156111bf576040517f08c379a00000000000000000000000000000000000000000000000000000000081526004018080602001828103825283818151815260200191508051906020019080838360005b83811015611184578082015181840152602081019050611169565b50505050905090810190601f1680156111b15780820380516001836020036101000a031916815260200191505b509250505060405180910390fd5b50606660009054906101000a900473ffffffffffffffffffffffffffffffffffffffff1673ffffffffffffffffffffffffffffffffffffffff166350bb4e7f336001846040518463ffffffff167c0100000000000000000000000000000000000000000000000000000000028152600401808473ffffffffffffffffffffffffffffffffffffffff1673ffffffffffffffffffffffffffffffffffffffff16815260200183815260200180602001828103825283818151815260200191508051906020019080838360005b838110156112a557808201518184015260208101905061128a565b50505050905090810190601f1680156112d25780820380516001836020036101000a031916815260200191505b50945050505050602060405180830381600087803b1580156112f357600080fd5b505af1158015611307573d6000803e3d6000fd5b505050506040513d602081101561131d57600080fd5b81019080805190602001909291905050505050565b61133a6114b1565b151561134557600080fd5b8073ffffffffffffffffffffffffffffffffffffffff166108fc3073ffffffffffffffffffffffffffffffffffffffff16319081150290604051600060405180830381858888f193505050501580156113a2573d6000803e3d6000fd5b5050565b6113ae6114b1565b15156113b957600080fd5b600073ffffffffffffffffffffffffffffffffffffffff16603360009054906101000a900473ffffffffffffffffffffffffffffffffffffffff1673ffffffffffffffffffffffffffffffffffffffff167f8be0079c531659141344cd1fd0a4f28419497f9722a3daafe3b4186f6b6457e060405160405180910390a36000603360006101000a81548173ffffffffffffffffffffffffffffffffffffffff021916908373ffffffffffffffffffffffffffffffffffffffff160217905550565b6000606980549050905090565b6000603360009054906101000a900473ffffffffffffffffffffffffffffffffffffffff16905090565b6000603360009054906101000a900473ffffffffffffffffffffffffffffffffffffffff1673ffffffffffffffffffffffffffffffffffffffff163373ffffffffffffffffffffffffffffffffffffffff1614905090565b6115116114b1565b151561151c57600080fd5b60006068836040518082805190602001908083835b6020831015156115565780518252602082019150602081019050602083039250611531565b6001836020036101000a038019825116818451168082178552505050505050905001915050908152602001604051809103902054116040805190810160405280601581526020017f4552524f525f42414447455f4e4f545f464f554e440000000000000000000000815250901515611669576040517f08c379a00000000000000000000000000000000000000000000000000000000081526004018080602001828103825283818151815260200191508051906020019080838360005b8381101561162e578082015181840152602081019050611613565b50505050905090810190601f16801561165b5780820380516001836020036101000a031916815260200191505b509250505060405180910390fd5b50806068836040518082805190602001908083835b6020831015156116a3578051825260208201915060208101905060208303925061167e565b6001836020036101000a0380198251168184511680821785525050505050509050019150509081526020016040518091039020819055505050565b6000806067836040518082805190602001908083835b60208310151561171957805182526020820191506020810190506020830392506116f4565b6001836020036101000a03801982511681845116808217855250505050505090500191505090815260200160405180910390205491506068836040518082805190602001908083835b6020831015156117875780518252602082019150602081019050602083039250611762565b6001836020036101000a0380198251168184511680821785525050505050509050019150509081526020016040518091039020549050915091565b600060019054906101000a900460ff16806117e157506117e06119d5565b5b806117f857506000809054906101000a900460ff16155b1515611892576040517f08c379a000000000000000000000000000000000000000000000000000000000815260040180806020018281038252602e8152602001807f436f6e747261637420696e7374616e63652068617320616c726561647920626581526020017f656e20696e697469616c697a656400000000000000000000000000000000000081525060400191505060405180910390fd5b60008060019054906101000a900460ff1690506001600060016101000a81548160ff02191690831515021790555060016000806101000a81548160ff02191690831515021790555081603360006101000a81548173ffffffffffffffffffffffffffffffffffffffff021916908373ffffffffffffffffffffffffffffffffffffffff160217905550603360009054906101000a900473ffffffffffffffffffffffffffffffffffffffff1673ffffffffffffffffffffffffffffffffffffffff16600073ffffffffffffffffffffffffffffffffffffffff167f8be0079c531659141344cd1fd0a4f28419497f9722a3daafe3b4186f6b6457e060405160405180910390a380600060016101000a81548160ff0219169083151502179055505050565b6119be6114b1565b15156119c957600080fd5b6119d2816119e6565b50565b600080303b90506000811491505090565b600073ffffffffffffffffffffffffffffffffffffffff168173ffffffffffffffffffffffffffffffffffffffff1614151515611a2257600080fd5b8073ffffffffffffffffffffffffffffffffffffffff16603360009054906101000a900473ffffffffffffffffffffffffffffffffffffffff1673ffffffffffffffffffffffffffffffffffffffff167f8be0079c531659141344cd1fd0a4f28419497f9722a3daafe3b4186f6b6457e060405160405180910390a380603360006101000a81548173ffffffffffffffffffffffffffffffffffffffff021916908373ffffffffffffffffffffffffffffffffffffffff16021790555050565b828054600181600116156101000203166002900490600052602060002090601f016020900481019282601f10611b2357805160ff1916838001178555611b51565b82800160010185558215611b51579182015b82811115611b50578251825591602001919060010190611b35565b5b509050611b5e9190611b62565b5090565b611b8491905b80821115611b80576000816000905550600101611b68565b5090565b9056fea165627a7a723058203cf35865e059dd04a92e711598144aaaae6ce24558894d651b9083b43b038f550029",
  "source": "pragma solidity ^0.5.0;\n\nimport \"openzeppelin-eth/contracts/ownership/Ownable.sol\";\nimport \"openzeppelin-eth/contracts/token/ERC721/ERC721MetadataMintable.sol\";\nimport \"zos-lib/contracts/Initializable.sol\";\n\ncontract Badges is Initializable, Ownable {\n\n    string private constant ERROR_SENDER_ZERO = \"ERROR_SENDER_ZERO\";\n    string private constant ERROR_TOKEN_ZERO = \"ERROR_TOKEN_ZERO\";\n    string private constant ERROR_NOT_ENOUGH_ETH = \"ERROR_NOT_ENOUGH_ETH\";\n    string private constant ERROR_BADGE_EXPIRED = \"ERROR_BADGE_EXPIRED\";\n    string private constant ERROR_BADGE_ALREADY_CREATED = \"ERROR_BADGE_ALREADY_CREATED\";\n    string private constant ERROR_BADGE_NOT_FOUND = \"ERROR_BADGE_NOT_FOUND\";\n\n    ERC721MetadataMintable private _token;\n\n    mapping(string => uint) _price;\n    mapping(string => uint) _expires;\n\n    string[] public _badges;\n\n    function initialize(address sender, ERC721MetadataMintable token) public initializer {\n        require(address(sender) != address(0), ERROR_SENDER_ZERO);\n        require(address(token) != address(0), ERROR_TOKEN_ZERO);\n        _transferOwnership(sender);\n        _token = token;\n    }\n\n    function getBadgesLength() public view returns (uint length) {\n        length = _badges.length;\n    }\n\n    function getBadgeData(string memory tokenURI) public view returns (uint price, uint expires) {\n        price = _price[tokenURI];\n        expires = _expires[tokenURI];\n    }\n\n    function buy(string memory tokenURI) public payable {\n        require(_expires[tokenURI] > 0, ERROR_BADGE_NOT_FOUND);\n        require(msg.value >= _price[tokenURI], ERROR_NOT_ENOUGH_ETH);\n        require(block.number < _expires[tokenURI], ERROR_BADGE_EXPIRED);\n\n        _token.mintWithTokenURI(msg.sender, 1, tokenURI);\n    }\n\n    function createBadge(string memory tokenURI, uint price, uint expires) public onlyOwner {\n        require(_price[tokenURI] == 0, ERROR_BADGE_ALREADY_CREATED);\n        _price[tokenURI] = price;\n        _expires[tokenURI] = expires;\n\n        _badges.push(tokenURI);\n    }\n\n    function makeAvailableUntil(string memory tokenURI, uint expires) public onlyOwner {\n        require(_expires[tokenURI] > 0, ERROR_BADGE_NOT_FOUND);\n        _expires[tokenURI] = expires;\n    }\n\n    function withdraw(address payable beneficiary) public onlyOwner {\n        beneficiary.transfer(address(this).balance);\n    }\n\n}",
  "sourcePath": "/home/daniel/Development/totem/packages/badges/contracts/Badges.sol",
  "compiler": {
    "name": "solc",
    "version": "0.5.0+commit.1d4f565a.Emscripten.clang"
  },
  "schemaVersion": "3.0.2",
  "updatedAt": "2019-03-09T14:35:41.549Z",
  "devdoc": {
    "methods": {
      "initialize(address)": {
        "details": "The Ownable constructor sets the original `owner` of the contract to the sender account."
      },
      "isOwner()": {
        "return": "true if `msg.sender` is the owner of the contract."
      },
      "owner()": {
        "return": "the address of the owner."
      },
      "renounceOwnership()": {
        "details": "Allows the current owner to relinquish control of the contract."
      },
      "transferOwnership(address)": {
        "details": "Allows the current owner to transfer control of the contract to a newOwner.",
        "params": {
          "newOwner": "The address to transfer ownership to."
        }
      }
    }
  },
  "userdoc": {
    "methods": {
      "renounceOwnership()": {
        "notice": "Renouncing to ownership will leave the contract without an owner. It will not be possible to call the functions with the `onlyOwner` modifier anymore."
      }
    }
  }
}